:020000040000fa
:080000000002040000000000f2
:020000040000fa
:04000800a803000049
:020000040000fa
:04000c00a803000045
:020000040000fa
:04001000a803000041
:020000040000fa
:04001400a80300003d
:020000040000fa
:04001800a803000039
:020000040000fa
:04001c00a803000035
:020000040000fa
:04002000a803000031
:020000040000fa
:04002400a80300002d
:020000040000fa
:04002800a803000029
:020000040000fa
:04002c00a803000025
:020000040000fa
:04003000a803000021
:020000040000fa
:04003400a80300001d
:020000040000fa
:04003800a803000019
:020000040000fa
:04003c00a803000015
:020000040000fa
:04004000a803000011
:020000040000fa
:0400440004030000b1
:020000040000fa
:04004800a803000009
:020000040000fa
:04004c00a803000005
:020000040000fa
:04005000a803000001
:020000040000fa
:040054002c03000079
:020000040000fa
:04005800a8030000f9
:020000040000fa
:04005c00a8030000f5
:020000040000fa
:04006000a8030000f1
:020000040000fa
:04006400a8030000ed
:020000040000fa
:04006800a8030000e9
:020000040000fa
:04006c00a8030000e5
:020000040000fa
:04007000a8030000e1
:020000040000fa
:04007400a8030000dd
:020000040000fa
:04007800a8030000d9
:020000040000fa
:04007c00a8030000d5
:020000040000fa
:04008000a8030000d1
:020000040000fa
:04008400a8030000cd
:020000040000fa
:04008800a8030000c9
:020000040000fa
:04008c00a8030000c5
:020000040000fa
:04009000a8030000c1
:020000040000fa
:04009400a8030000bd
:020000040000fa
:04009800a8030000b9
:020000040000fa
:04009c00a8030000b5
:020000040000fa
:0400a0006a030000ef
:020000040000fa
:0400a400a8030000ad
:020000040000fa
:0400a800a8030000a9
:020000040000fa
:0400ac00a8030000a5
:020000040000fa
:0400b000a8030000a1
:020000040000fa
:0400b400a80300009d
:020000040000fa
:0400b800a803000099
:020000040000fa
:0400bc00a803000095
:020000040000fa
:0400c000a803000091
:020000040000fa
:0400c400a80300008d
:020000040000fa
:0400c800a803000089
:020000040000fa
:0400cc00a803000085
:020000040000fa
:0400d000a803000081
:020000040000fa
:0400d400a80300007d
:020000040000fa
:0400d800a803000079
:020000040000fa
:0400dc00a803000075
:020000040000fa
:0400e000a803000071
:020000040000fa
:0400e400a80300006d
:020000040000fa
:0400e800a803000069
:020000040000fa
:0400ec00a803000065
:020000040000fa
:0400f000a803000061
:020000040000fa
:0400f400a80300005d
:020000040000fa
:0400f800a803000059
:020000040000fa
:0400fc00a803000055
:020000040000fa
:04010000a803000050
:020000040000fa
:04010400a80300004c
:020000040000fa
:04010800a803000048
:020000040000fa
:04010c00a803000044
:020000040000fa
:04011000a803000040
:020000040000fa
:04011400a80300003c
:020000040000fa
:04011800a803000038
:020000040000fa
:04011c00a803000034
:020000040000fa
:04012000a803000030
:020000040000fa
:04012400a80300002c
:020000040000fa
:04012800a803000028
:020000040000fa
:04012c00a803000024
:020000040000fa
:04013000a803000020
:020000040000fa
:04013400a80300001c
:020000040000fa
:04013800a803000018
:020000040000fa
:04013c00a803000014
:020000040000fa
:04014000a803000010
:020000040000fa
:04014400a80300000c
:020000040000fa
:04014800a803000008
:020000040000fa
:04014c00a803000004
:020000040000fa
:04015000a803000000
:020000040000fa
:04015400a8030000fc
:020000040000fa
:04015800a8030000f8
:020000040000fa
:04015c00a8030000f4
:020000040000fa
:04016000a8030000f0
:020000040000fa
:04016400a8030000ec
:020000040000fa
:04016800a8030000e8
:020000040000fa
:04016c00a8030000e4
:020000040000fa
:04017000a8030000e0
:020000040000fa
:04017400a8030000dc
:020000040000fa
:04017800a8030000d8
:020000040000fa
:04017c00a8030000d4
:020000040000fa
:04018000a8030000d0
:020000040000fa
:04018400a8030000cc
:020000040000fa
:04018800a8030000c8
:020000040000fa
:04018c00a8030000c4
:020000040000fa
:04019000a8030000c0
:020000040000fa
:04019400a8030000bc
:020000040000fa
:04019800a8030000b8
:020000040000fa
:04019c00a8030000b4
:020000040000fa
:0401a000a8030000b0
:020000040000fa
:0401a400a8030000ac
:020000040000fa
:0401a800a8030000a8
:020000040000fa
:0401ac00a8030000a4
:020000040000fa
:0401b000a8030000a0
:020000040000fa
:0401b400a80300009c
:020000040000fa
:0401b800a803000098
:020000040000fa
:0401bc00a803000094
:020000040000fa
:0401c000a803000090
:020000040000fa
:0401c400a80300008c
:020000040000fa
:0401c800a803000088
:020000040000fa
:0401cc00a803000084
:020000040000fa
:0401d000a803000080
:020000040000fa
:0401d400a80300007c
:020000040000fa
:0401d800a803000078
:020000040000fa
:0401dc00a803000074
:020000040000fa
:0401e000a803000070
:020000040000fa
:0401e400a80300006c
:020000040000fa
:0401e800a803000068
:020000040000fa
:0401ec00a803000064
:020000040000fa
:0401f000a803000060
:020000040000fa
:0401f400a80300005c
:020000040000fa
:0401f800a803000058
:020000040000fa
:0401fc00a803000054
:020000040000fa
:04020800a803000047
:020000040000fa
:04020c00a803000043
:020000040000fa
:04021000a80300003f
:020000040000fa
:04021400a80300003b
:020000040000fa
:04021800a803000037
:020000040000fa
:04021c00a803000033
:020000040000fa
:04022000a80300002f
:020000040000fa
:04022400a80300002b
:020000040000fa
:04022800a803000027
:020000040000fa
:04022c00a803000023
:020000040000fa
:04023000a80300001f
:020000040000fa
:04023400a80300001b
:020000040000fa
:04023800a803000017
:020000040000fa
:04023c00a803000013
:020000040000fa
:04024000a80300000f
:020000040000fa
:0402440004030000af
:020000040000fa
:04024800a803000007
:020000040000fa
:04024c00a803000003
:020000040000fa
:04025000a8030000ff
:020000040000fa
:040254002c03000077
:020000040000fa
:04025800a8030000f7
:020000040000fa
:04025c00a8030000f3
:020000040000fa
:04026000a8030000ef
:020000040000fa
:04026400a8030000eb
:020000040000fa
:04026800a8030000e7
:020000040000fa
:04026c00a8030000e3
:020000040000fa
:04027000a8030000df
:020000040000fa
:04027400a8030000db
:020000040000fa
:04027800a8030000d7
:020000040000fa
:04027c00a8030000d3
:020000040000fa
:04028000a8030000cf
:020000040000fa
:04028400a8030000cb
:020000040000fa
:04028800a8030000c7
:020000040000fa
:04028c00a8030000c3
:020000040000fa
:04029000a8030000bf
:020000040000fa
:04029400a8030000bb
:020000040000fa
:04029800a8030000b7
:020000040000fa
:04029c00a8030000b3
:020000040000fa
:0402a0006a030000ed
:020000040000fa
:0402a400a8030000ab
:020000040000fa
:0402a800a8030000a7
:020000040000fa
:0402ac00a8030000a3
:020000040000fa
:0402b000a80300009f
:020000040000fa
:0402b400a80300009b
:020000040000fa
:0402b800a803000097
:020000040000fa
:0402bc00a803000093
:020000040000fa
:0402c000a80300008f
:020000040000fa
:0402c400a80300008b
:020000040000fa
:0402c800a803000087
:020000040000fa
:0402cc00a803000083
:020000040000fa
:0402d000a80300007f
:020000040000fa
:0402d400a80300007b
:020000040000fa
:0402d800a803000077
:020000040000fa
:0402dc00a803000073
:020000040000fa
:0402e000a80300006f
:020000040000fa
:0402e400a80300006b
:020000040000fa
:0402e800a803000067
:020000040000fa
:0402ec00a803000063
:020000040000fa
:0402f000a80300005f
:020000040000fa
:0402f400a80300005b
:020000040000fa
:0402f800a803000057
:020000040000fa
:0402fc00a803000053
:020000040000fa
:04030000a80300004e
:020000040000fa
:04030400a80300004a
:020000040000fa
:04030800a803000046
:020000040000fa
:04030c00a803000042
:020000040000fa
:04031000a80300003e
:020000040000fa
:04031400a80300003a
:020000040000fa
:04031800a803000036
:020000040000fa
:04031c00a803000032
:020000040000fa
:04032000a80300002e
:020000040000fa
:04032400a80300002a
:020000040000fa
:04032800a803000026
:020000040000fa
:04032c00a803000022
:020000040000fa
:04033000a80300001e
:020000040000fa
:04033400a80300001a
:020000040000fa
:04033800a803000016
:020000040000fa
:04033c00a803000012
:020000040000fa
:04034000a80300000e
:020000040000fa
:04034400a80300000a
:020000040000fa
:04034800a803000006
:020000040000fa
:04034c00a803000002
:020000040000fa
:04035000a8030000fe
:020000040000fa
:04035400a8030000fa
:020000040000fa
:04035800a8030000f6
:020000040000fa
:04035c00a8030000f2
:020000040000fa
:04036000a8030000ee
:020000040000fa
:04036400a8030000ea
:020000040000fa
:04036800a8030000e6
:020000040000fa
:04036c00a8030000e2
:020000040000fa
:04037000a8030000de
:020000040000fa
:04037400a8030000da
:020000040000fa
:04037800a8030000d6
:020000040000fa
:04037c00a8030000d2
:020000040000fa
:04038000a8030000ce
:020000040000fa
:04038400a8030000ca
:020000040000fa
:04038800a8030000c6
:020000040000fa
:04038c00a8030000c2
:020000040000fa
:04039000a8030000be
:020000040000fa
:04039400a8030000ba
:020000040000fa
:04039800a8030000b6
:020000040000fa
:04039c00a8030000b2
:020000040000fa
:0403a000a8030000ae
:020000040000fa
:0403a400a8030000aa
:020000040000fa
:0403a800a8030000a6
:020000040000fa
:0403ac00a8030000a2
:020000040000fa
:0403b000a80300009e
:020000040000fa
:0403b400a80300009a
:020000040000fa
:0403b800a803000096
:020000040000fa
:0403bc00a803000092
:020000040000fa
:0403c000a80300008e
:020000040000fa
:0403c400a80300008a
:020000040000fa
:0403c800a803000086
:020000040000fa
:0403cc00a803000082
:020000040000fa
:0403d000a80300007e
:020000040000fa
:0403d400a80300007a
:020000040000fa
:0403d800a803000076
:020000040000fa
:0403dc00a803000072
:020000040000fa
:0403e000a80300006e
:020000040000fa
:0403e400a80300006a
:020000040000fa
:0403e800a803000066
:020000040000fa
:0403ec00a803000062
:020000040000fa
:0403f000a80300005e
:020000040000fa
:0403f400a80300005a
:020000040000fa
:0403f800a803000056
:020000040000fa
:0403fc00a803000052
:020000040000fa
:100400002fae20000e7f22000e01880000000000a9
:10041000000020000000e000020032000001200087
:100420002002880014000700cb0007000000e00055
:1004300003003a00003921000100200002003700cb
:100440000000200001002000810f70000100320038
:1004500014000700000020000000e000020032004d
:100460000000020000000000e21302000000000093
:100470000040da000000fe004440a90020002000f7
:100480000000e0000300320010002000900188000e
:100490004440a800000006008a1f78008b1f7800e7
:1004a00000000600a1028800800478000000eb0034
:1004b0001f003700e284440054a0b4009905ba003c
:1004c000e284440054a0b4009906ba00e2844400d7
:1004d00054a0b4000006eb00476fde00fd07b20039
:1004e000ae018800636ce10003003a00eaff0700f8
:1004f0000000eb000e003700606ce10008003a00dd
:10050000004deb000a05e800020039003420ec0041
:100510000af0a0008b05e900f9ff3e000400370057
:100520006168e100010032000086eb000b0007006b
:1005300019c7ba001905ba000e04e00003003a001a
:100540000a00e000dbff3a0000000600fe07b200f0
:10055000ae0288008a047800f5ff37000cd0a300b3
:10056000e20f4d001c00390089027800354dba00b9
:100570000a05e800020039003420ec000af0a0006f
:100580008b05e9000f003200254dba000a05e8008e
:10059000020039003420ec000af0a0008b05e900cd
:1005a000080032000c00e0000600320015cdba0051
:1005b0000a05e800020039003420ec000af0a0002f
:1005c0008b05e9008984e80054a0b4000b00e0002a
:1005d000e2ff3a00000006009902ba00055d7800cb
:1005e0008b05e900f7ff3200c82ade00055d7800c0
:1005f0008b05e900f3ff32000c00e000f1ff320050
:1006000019ddba00eeff3700809fbe003200f8000f
:100610003400f80010002000a00188001000200025
:10062000900188000000fa004041800051418000a4
:1006300061004000e080480040418800514188004e
:1006400084e0a9000080fa003400f9003200f900cb
:100650004f00be0000400600809fbe00821f780051
:100660003200f8003400f80010002000a0018800db
:1006700010002000900188000200fa003111800073
:10068000010f7800004180009e0078000141780051
:10069000a1a2200082707800004180000000e800e4
:1006a0000041880001418000f0032000808f50004d
:1006b000010034002028ef008560a9000080fa00c6
:1006c0003400f9003200f9004f0178004f00be00fd
:1006d00000400600809fbe00821f78003200f800b4
:1006e0003400f80010002000a00188001000200055
:1006f000900188000200fa00b1118000010f78001b
:10070000204180009e00780001417800a1a62000d1
:1007100082707800204180000000e80020418800bd
:1007200021418000f0032000808f50000100340040
:100730002428ef0087c0a9000080fa003400f900e7
:100740003200f9004f0178004f00be000040060063
:0c0750000040da000000fe000000050080
:020000040000fa
:10075c000000fa001428ef001628ef001828ef000c
:10076c001a28ef0010002000e04088006501070007
:10077c000000eb000080fa00000006000800fa0000
:10078c0060479800b140800080792000808f500035
:10079c0006003400a140800000a22000808f500091
:1007ac00020034000040eb004900370059010700fb
:1007bc0040479800a04080000000e800a04088005e
:1007cc00c04080000000e00003003a001000200050
:1007dc00c0408800150037001828ef000000eb001f
:1007ec00000f7800090037004a010700a040800084
:1007fc000000e800a040880046010700a0408000ef
:10080c000000e800a04088001e0fe8006e40900039
:10081c000080fb008000400080ad20000080400084
:10082c00100078009e0f5000efff3c00a1408000ac
:10083c00f0a12000808f5000240034001428ef0019
:10084c00b04080000000e800b0408800d04080003c
:10085c000000e00002003a0010002000d0408800a8
:10086c00d0408000e10f500018003a001a28ef0029
:10087c000000eb00000f78000c0037000000eb00cc
:10088c001007980004003700220107001e0090009a
:10089c000000e800100798009e009000f0a12000d6
:1008ac00808f5000f8ff34001e0fe8006e4090005f
:1008bc000080fb008000400080ad200000804000e4
:1008cc00100078009e0f5000ecff3c004e40900052
:1008dc000080fa00000006000800fa00604798004b
:1008ec00b140800080792000808f500006003400d9
:1008fc00a140800000a22000808f50000200340034
:10090c000000eb004c0037006e4090006f40600020
:10091c00604798004d01070020079800a040800018
:10092c000000e800a0408800c04080000000e0000b
:10093c0003003a0010002000c0408800150037006a
:10094c001828ef000000eb00000f780009003700ba
:10095c003e010700a04080000000e800a040880095
:10096c003a010700a04080000000e800a040880089
:10097c001e0fe8006e4090000080fb0080004000dd
:10098c0080ad200000804000100078009e0f5000c9
:10099c00efff3c00a1408000f0a12000808f5000b0
:1009ac00240034001428ef00b04080000000e80060
:1009bc00b0408800d04080000000e00002003a0007
:1009cc0010002000d0408800d0408000e10f500083
:1009dc0018003a001a28ef000000eb00000f780016
:1009ec000c0037000000eb001007980004003700e3
:1009fc00160107001e0090000000e8001007980088
:100a0c009e009000f0a12000808f5000f8ff340071
:100a1c001e0fe8006e4090000080fb00800040003c
:100a2c0080ad200000804000100078009e0f500028
:100a3c00ecff3c002e0090000080fa000000060045
:100a4c000800fa00881f78002007980031079800ea
:100a5c000093200001c8b3000148780010932000d7
:100a6c0001c8b30001487800209320008040eb00bf
:100a7c00014878003093200041cfb3000148780042
:100a8c002e0090004880de008040780040932000cb
:100a9c00014878002e009000804078005093200090
:100aac00014878000000eb00000f78001f003700b1
:100abc003e009000700060000000e00008003a006a
:100acc009e007800668440003e0090000040780054
:100adc002aff07000193200080707c001200370071
:100aec003e009000004078007bff07001007980044
:100afc009e007800668040009e009000c808de00d2
:100b0c000141780001932000827078001e0fe800ec
:100b1c009e007800668040009e00900001417800a5
:100b2c0001932000827078001e0fe800100f200047
:100b3c009e007800808f5000ddff360080a22000e0
:100b4c0011c8b3000148780090a2200011c8b3006e
:100b5c00014878004f0478000080fa00000006007d
:100b6c000800fa0020079800310798002e0090002a
:100b7c000000e00003003a0060152500804088006a
:100b8c002c0037002e009000e10f500003003a00bb
:100b9c006045210080408800260037002e00900020
:100bac00e20f500003003a006051200080408800a2
:100bbc00200037002e009000e30f500003003a0095
:100bcc0060142000804088001a0037002e0090002e
:100bdc00f10f500003003a00c08a220080408800c8
:100bec00140037002e009000f20f500003003a0062
:100bfc00c0a22000804088000e0037002e0090001c
:100c0c00f30f500003003a00c028200080408800f9
:100c1c00080037002e009000e40f500003003a004b
:100c2c00f004200080408800020037000080eb00b8
:100c3c001b003700c6fe07000000eb00000f780019
:100c4c000e0037000000eb0010079800060037007c
:100c5c002e00900000407800c8fe07001e00900097
:100c6c000000e800100798009e009000100f200074
:100c7c00808f5000f6ff34001e0fe8003e009000fd
:100c8c009e007800808f5000eeff35008140800080
:100c9c003e00900000805000804088000000eb0077
:100cac000080fa00000006000000fa00a10f2000ee
:100cbc0000932000160107000080fa0000000600d7
:100ccc000200fa00000f7800804080000000e00075
:100cdc0002003a000080eb000800370080408000e2
:100cec000000e90080408800804080009e00780071
:100cfc0053ff0700ecff07000000eb000080fa0038
:100d0c00000006000000fa00040307000080fa004f
:100d1c00000006000600fa00e04080000000e00041
:100d2c00260032006000b8001007980021079800d8
:100d3c000b0037000b030700004f78001e407800b3
:100d4c000004e0000e003a001e009000ae0090007f
:100d5c0061004000e08048001007980021079800cf
:100d6c001e019000ae01900070932900110020002c
:100d7c00800f5100818f5900eeff340001003700c5
:100d8c00000000001c28ef0010002000f04088003c
:100d9c001e019000ae0190007093290011002000fc
:100dac00800f5100818f590002003c001e407800da
:100dbc002400370000c0eb0022003700f140800017
:100dcc00f0a12000808f500018003400e5020700cd
:100ddc00004f78006000b8001007980021079800b9
:100dec0007003700df0207001e009000ae009000e5
:100dfc0061004000e080480010079800210798002f
:100e0c001e019000ae01900030382000010020003f
:100e1c00800f5100818f5900f2ff34001000200028
:100e2c00f04088001e40780006003700cd02070015
:100e3c00004f7800f04080000000e800f04088008f
:100e4c001e4078000080fa00000006000600fa0040
:100e5c00e04080000000e000270032006000b80095
:100e6c0010079800210798000c003700cd020700ee
:100e7c00000f780000f02f001e0060000000e00062
:100e8c000e003a001e009000ae0090006100400081
:100e9c00e080480010079800210798001e01900080
:100eac00ae0190007093290011002000800f5100ba
:100ebc00818f5900edff3400010037000000000065
:100ecc001c28ef0010002000f04088001e0190004c
:100edc00ae0190007093290011002000800f51008a
:100eec00818f590002003c001e007800240037005e
:100efc00f00f200022003700f1408000f0a120000c
:100f0c00808f500018003400a6020700000f7800f4
:100f1c006000b80010079800210798000700370000
:100f2c00a00207001e009000ae009000610040007f
:100f3c00e080480010079800210798001e019000df
:100f4c00ae0190003038200001002000800f5100cd
:100f5c00818f5900f2ff340010002000f04088000f
:100f6c001e007800060037008e020700000f780084
:100f7c00f04080000000e800f04088001e0078007f
:100f8c000080fa00000006000400fa001007980028
:100f9c000000eb00000f7800040037001e009000ea
:100fac000000e800100798001e0fe8001e009000db
:100fbc00104078000004e000f8ff3a001e007800b2
:100fcc000080fa00000006000000fa002028ef0064
:100fdc002228ef0081e0a800a9c0a900a9a0a800c0
:100fec00a980a9008560a9009560a8000080fa007e
:100ffc00000006000000fa002428ef002628ef006d
:10100c0081e0a800b340a900b320a800b300a90058
:10101c0087c0a90097c0a8000080fa000000060055
:10102c000000fa0080082800001188000040280009
:10103c00101188003001200040118800e2ff0700e9
:10104c000080fa00000006000000fa00800828006a
:10105c008011880000402800901188003001200089
:10106c00c0118800ecc4a900ece4a900f0c2a900ee
:10107c00f0e2a900f2c2a900f2e2a900a1368000b8
:10108c00f00f2c00808060000050200001007000e8
:10109c00a03688003135800000fc2f0000806000f5
:1010ac00a001b30030358800d2ff07000080fa00a1
:1010bc00000006000400fa00000f780011079800e9
:1010cc000e003700000000001111800000202000ed
:1010dc00008060000000e000fbff3a001e0078007a
:1010ec00104078000080fb00201188001e0fe800e3
:1010fc001e0090000000e900100798001e009000f0
:10110c000000e000efff3c000080fa000000060049
:10111c000400fa00000f7800110798000e00370049
:10112c000000000091118000002020000080600071
:10113c000000e000fbff3a001e0078001040780031
:10114c000080fb00a01188001e0fe8001e0090001c
:10115c000000e900100798001e0090000000e0005d
:10116c00efff3c000080fa00000006000600fa00c9
:10117c0010079800210798000000eb00000f780082
:10118c000141800010418000808f500002003a0025
:10119c000000eb004b003700014180001041800043
:1011ac00808f500029003400110037001e00780099
:1011bc009e0090000080400011418000a2a22000ff
:1011cc00e2c0780001487800104180000000e8007f
:1011dc00104188001e0fe8002e0090009e00780041
:1011ec00808f5000020035001e007800350037005b
:1011fc000141800010418000808f5000ebff3c00cb
:10120c002f00370010418000a1a22000e14078009f
:10121c001e009000014878001e0090000000e800bd
:10122c0010079800104180000000e8001041880071
:10123c001e0fe8002e0090009e007800808f50005a
:10124c00030035001e0078001e003700000000006f
:10125c0011418000f0032000808f5000e9ff340022
:10126c002228ef001200370010418000a1a22000bc
:10127c00e14078001e009000014878001e009000ac
:10128c000000e80010079800104180000000e80002
:10129c00104188001e0fe8002e0090009e00780080
:1012ac00808f5000020035001e00780005003700ca
:1012bc000141800010418000808f5000eaff3c000b
:1012cc001e0078000080fa00000006000600fa00fc
:1012dc0010079800210798000000eb00000f780021
:1012ec002141800030418000808f500002003a0084
:1012fc000000eb004b0037002141800030418000a2
:10130c00808f500029003400110037001e00780037
:10131c009e0090000080400031418000a2a6200079
:10132c00e2c0780001487800304180000000e800fd
:10133c00304188001e0fe8002e0090009e007800bf
:10134c00808f5000020035001e00780035003700f9
:10135c002141800030418000808f5000ebff3c0029
:10136c002f00370030418000a1a62000e14078001a
:10137c001e009000014878001e0090000000e8005c
:10138c0010079800304180000000e80030418800d0
:10139c001e0fe8002e0090009e007800808f5000f9
:1013ac00030035001e0078001e003700000000000e
:1013bc0031418000f0032000808f5000e9ff3400a1
:1013cc002628ef001200370030418000a1a6200033
:1013dc00e14078001e009000014878001e0090004b
:1013ec000000e80010079800304180000000e80081
:1013fc00304188001e0fe8002e0090009e007800ff
:10140c00808f5000020035001e0078000500370068
:10141c002141800030418000808f5000eaff3c0069
:10142c001e0078000080fa00000006000200fa009e
:10143c00000f78001e007800d3fe070080007800b3
:10144c001e00780032ff07000080fa000000060042
:10145c000000fa00500b200020108800000028002b
:10146c00301088000080fa00000006000000fa002e
:10147c000642a8006000b8008e040700090037007f
:10148c00870407000001be00e001200001002000dd
:10149c00800f5100818f5900020036000080eb0054
:1014ac000500370030108000640060000000e00090
:1014bc00f3ff3a000000eb000080fa000000060089
:1014cc000000fa000602a8006000b80079040700ca
:1014dc000a003700720407000001be00e001200082
:1014ec0001002000800f5100818f5900030036004d
:1014fc00deff07000080eb00050037003010800095
:10150c00610060000000e000f2ff3a000000eb0018
:10151c000080fa00000006000000fa000622a80075
:10152c006000b800630407000a0037005c04070081
:10153c000001be00e001200001002000800f5100de
:10154c00818f590003003600c8ff07000080eb00b4
:10155c000500370030108000620060000000e000e1
:10156c00f2ff3a000000eb000080fa0000000600d9
:10157c000000fa00bdff07000000e00002003d0083
:10158c000080eb0009003700007d200001002000e6
:10159c00ab040700caff07000000e00002003d009a
:1015ac000080eb00010037000000eb000080fa0027
:1015bc00000006000200fa00004f78001e80fb00bd
:1015cc00101088006000b8003a0407000a003700c9
:1015dc00330407000001be00e001200001002000e0
:1015ec00800f5100818f5900030036009fff0700c8
:1015fc000080eb000d00370041108000000024003b
:10160c00008060000000e000f1ff3a004110800013
:10161c0000002800008060000000e00002003200a2
:10162c00e0ff2f00010037000000eb000080fa0003
:10163c00000006000200fa00000f78000662a80005
:10164c006000b8001b0407000a00370014040700f0
:10165c000001be00e001200001002000800f5100bd
:10166c00818f59000300360080ff07000080eb00db
:10167c000900370030108000680060000000e000b6
:10168c00f2ff3a0000108000804078001e007800c5
:10169c00014878000000eb000080fa000000060012
:1016ac000000fa0006a2a9000682a8006000b8009b
:1016bc00000407000a003700f90307000001be0010
:1016cc00e001200001002000800f5100818f5900a3
:1016dc000300360065ff07000080eb0005003700b3
:1016ec0030108000700060000000e000f2ff3a0053
:1016fc000000eb000080fa00000006000000fa0079
:10170c0006a2a8000682a8006000b800e903070042
:10171c000a003700e20307000001be00e0012000d0
:10172c0001002000800f5100818f5900030036000a
:10173c004eff07000080eb000500370030108000e2
:10174c00700060000000e000f2ff3a000000eb00c7
:10175c000080fa00000006000400fa00004f780038
:10176c00114798002247980055ff07000000e00041
:10177c0002003d000080eb001a003700a0cbb30044
:10178c008cff07000000e00002003d00e0ff2f008e
:10179c00140037001e40780086ff07000000e000b0
:1017ac0002003d00d0ff2f000e0037001e409000bd
:1017bc0080ff07000000e00002003d00c0ff2f008a
:1017cc00080037002e4090007aff07000000e00070
:1017dc0002003d00b0ff2f000200370023ff07007e
:1017ec000000eb000080fa00000006000600fa0082
:1017fc00004f7800110798002207980030ff07006f
:10180c000000e00002003d0050ff2f002f003700c9
:10181c00a0cbb30067ff07000000e00002003d0012
:10182c0040ff2f00290037001e40780061ff0700a1
:10183c000000e00002003d0030ff2f0023003700c5
:10184c0035ff07000000e00002003d0020ff2f00e4
:10185c001e003700b0cbb30056ff07000000e000bd
:10186c0002003d0010ff2f00180037001e009000f2
:10187c0070ff07000000e00002003d0000ff2f0099
:10188c001200370086ff07000000e00002003d0058
:10189c00f0fe2f000d0037002e00900065ff0700b2
:1018ac000000e00002003d00e0fe2f0007003700c2
:1018bc0092ff07000000e00002003d00d0fe2f0068
:1018cc0002003700e9fe07000000eb000080fa0080
:1018dc00000006000000fa00ec82a8000040220084
:1018ec0001002000d6030700ec82a9000080fa005a
:1018fc00000006000000fa00cde2a900cd82a9008c
:10190c000080fa00000006000000fa00cd82a90059
:10191c00cde2a9000080fa00000006000000fa00e9
:10192c005000200001002000c5030700ec22a80095
:10193c00cda2a800cdc2a9005000200001002000bb
:10194c00bf030700cdc2a800cd82a900ec82a9007c
:10195c00cda2a900ec02a900cdc2a9000080fa001a
:10196c00000006000400fa00eca2a800ec22a8007b
:10197c00ec02a800cda2a900cdc2a80011178000ce
:10198c00010f7800f00f20001e0f60001e00780081
:10199c0020479800cdc2a9002e4090000080fa008c
:1019ac00000006000600fa00eca2a800ec22a80039
:1019bc00ec02a800cda2a900cdc2a800111780008e
:1019cc00010f7800f00f20001e0f60009e007800c1
:1019dc00110798001e0090004800dd0010079800c9
:1019ec00d116800021079800ae009000f00f200067
:1019fc0000806000200798009e0090002e00900050
:101a0c000100700010079800cdc2a9001e009000c4
:101a1c000080fa00000006000000fa00ec22a90089
:101a2c00eca2a900cde2a900cdc2a900cd82a900eb
:101a3c00ec82a800cda2a800ec02a9005000200066
:101a4c00010020007e030700500020000100200050
:101a5c007b030700cd82a900ec82a800cda2a800d0
:101a6c00ec02a900cdc2a80050002000010020000b
:101a7c0073030700cdc2a900cd82a900ec82a80097
:101a8c00cda2a800ec02a90050002000010020000b
:101a9c006b030700cd82a900ec82a800cda2a800a0
:101aac00ec02a900cdc2a8005000200001002000cb
:101abc0063030700cdc2a900cd82a900ec82a80067
:101acc00cda2a800ec02a900cd82a900ec82a8004e
:101adc00cda2a800ec02a900cdc2a800cdc2a900dd
:101aec00cd82a900ec82a800cda2a800ec02a9002e
:101afc00ec22a900eca2a800cde2a90000c42900a8
:101b0c00010020004e030700cdc2a900cd82a90020
:101b1c00ec82a800cda2a800ec02a900cd82a900fd
:101b2c00ec82a800cda2a800ec02a900cdc2a800ae
:101b3c00cdc2a900cd82a900ec82a900cda2a9003a
:101b4c00ec02a90020032000010020003c03070048
:101b5c000080fa00000006000000fa00e224ef000a
:101b6c00e424ef00e624ef00e824ef00ea24ef0081
:101b7c00ec24ef00c9a2a900c982a900e882a9003f
:101b8c00c9c2a900e822a900e802a900c9e2a9007b
:101b9c00e8a2a900d962a8000080eb00c01688005a
:101bac000080eb0000178800ca22ef00007d2000a7
:101bbc000100200022030700ec82a900cde2a9005d
:101bcc00cd82a900cda2a900ec22a900ec02a900ab
:101bdc00eca2a80090ff0700007d2000010020006f
:101bec00170307003bff0700007d200001002000c9
:101bfc001303070049ff0700007d200001002000af
:101c0c000f0307000080fa00000006000400fa0031
:101c1c006000b800008fbe001200200003002000fe
:101c2c001e0f41005e9749000000200001002400b7
:101c3c001e01be00800f5100818f5900020036003a
:101c4c000080eb0019003700d116800000802000c6
:101c5c00008060000000e000efff32006000b80080
:101c6c00008fbe0012002000030020001e0f410058
:101c7c005e97490000002000010024001e01be00f8
:101c8c00800f5100818f5900020036000080eb005c
:101c9c0006003700d1168000008020000080600014
:101cac000000e000efff3a00100020000080fa0076
:101cbc00000006000000fa00007d2000010020005a
:101ccc00df02070010ff0700007d2000010020004c
:101cdc00db020700fffe0700ccff07000000e0005e
:101cec0002003d000080eb0019003700d116800087
:101cfc0000802000008060000000e000fbff32004c
:101d0c00d116800000802000008060000000e00000
:101d1c00fbff3a00ec22a800cda2a800cde2a8005f
:101d2c00cd82a800cdc2a80000802500f1052000be
:101d3c00c3020700cd82a900cde2a900cdc2a90043
:101d4c00ec22a900cda2a900f4fe07000000eb00d4
:101d5c000080fa00000006000000fa0010002000cd
:101d6c00304088000080fa00000006000600fa00ef
:101d7c0010079800210798006b0037000040800086
:101d8c000000e00013003a001e0090009040780024
:101d9c0000c8b30080cf50000c003a000428ef00bc
:101dac00204080009e0090001141780001832000ab
:101dbc0082707800204080000000e80020408800fd
:101dcc001000200000408800510037000028ef0070
:101ddc004f00370000408000e10f500012003a0025
:101dec001e0090009040780000c8b30080cf5000d7
:101dfc000b003a00204080009e00900011417800ba
:101e0c000183200082707800204080000000e800f0
:101e1c002040880020002000004088003c00370053
:101e2c000028ef003a00370000408000e20f50001d
:101e3c0012003a00204080009e0090001141780072
:101e4c000183200082707800204080000000e800b0
:101e5c00204088001e009000104078000080fb009d
:101e6c0010408800104080000080e800104088007e
:101e7c003000200000408800250037000040800022
:101e8c00e30f500022003a00204080009e0090009a
:101e9c00114178000183200082707800204080007e
:101eac000000e80020408800104080000000e9009d
:101ebc0010408800104080000000e00014003c003e
:101ecc002040800080007800008320001b00070069
:101edc00000f78001e0078000000e00005003a00ba
:101eec002040800080007800008320002b00070039
:101efc0006003700f00f20009e007800808f500005
:101f0c0002003a00f00f2000304088000028ef005b
:101f1c001e0090000000e800100798002e009000b2
:101f2c000000e900200798002e0090000000e0005f
:101f3c0092ff3c000080fa00000006000400fa004a
:101f4c00000f7800110798001e0090000000e900b7
:101f5c001e0040009040780010c8b30080cf5000a5
:101f6c0002003200f00f20000a0037001e00900023
:101f7c000080e9001e0040009040780010c8b300bb
:101f8c0080cf500002003200f00f2000010037001b
:101f9c000000eb000080fa00000006000400fa00cc
:101fac00000f7800110798001e80e80010407800a0
:101fbc000080fb00604088009e0090001e007800ae
:101fcc00030007000000eb000080fa000000060090
:101fdc000600fa0010079800210798001e009000d8
:101fec0063004000104078000080fb00000f780078
:101ffc001e007800e10f500005003a00ae00900082
:10200c001e009000450007000000eb004100370067
:10201c00000320009e007800808f500005003a00dd
:10202c00ae0090001e009000430007003040880076
:10203c002e003700100320009e007800808f500087
:10204c0005003a00ae0090001e00900055000700fd
:10205c0030408800250037001e007800f00f50003b
:10206c0005003a00ae0090001e00900066000700cc
:10207c00304088001d003700000220009e007800d0
:10208c00808f500005003a00ae0090001e009000ba
:10209c006500070030408800140037001002200053
:1020ac009e007800808f500005003a00ae00900032
:1020bc001e00900085000700304088000b003700a0
:1020cc00f00220009e007800808f500005003a003e
:1020dc00ae0090001e0090008f000700304088007a
:1020ec0002003700e00f2000304088005040800094
:1020fc000000e8005040880051408000f00f2000a4
:10210c0000806000504088009e00780041408800ac
:10211c000000eb000080fa00000006000400fa004a
:10212c00000f7800110798004601070010002000ee
:10213c000080fa00000006000a00fa003007980040
:10214c00410798003e00900064004000104f78005a
:10215c003e009000650040009040780011479800c8
:10216c003e009000660040009040780021479800a7
:10217c002e4190009e4090001e40780076fd070096
:10218c00200798002e0090000000e00002003d00a7
:10219c00000f200001003700100020000080fa0022
:1021ac00000006000a00fa0030079800410798006a
:1021bc003e00900064004000104f7800e50047009e
:1021cc006400470001017800800078001e40780010
:1021dc0086fd0700100798001e0090000000e0002c
:1021ec0002003d00000f2000050037004e4090001b
:1021fc000ee8b7005e4090000fe8b700100020001a
:10220c000080fa00000006000400fa00000f7800bd
:10221c001107980000fe0700a6fe07001000200022
:10222c000080fa00000006000800fa002007980061
:10223c00310798002e009000640040001040780098
:10224c000080fb00904088002e009000650040004c
:10225c00104078000080fb00000f78001e00780012
:10226c004800dd00000f78002e0090006600400052
:10227c00104078000080fb001e0f70009040800022
:10228c009e00780036fa0700100798001e00900098
:10229c000000e00002003d00100f20000900370094
:1022ac009040800086fa0700100798001e009000ee
:1022bc000000e00002003d0010002000010037008b
:1022cc00200020000080fa00000006000600fa0042
:1022dc001007980021079800804080000000e00063
:1022ec0002003a00300020000900370090408000c6
:1022fc0073fa0700000f78001e0078000000e00061
:10230c0002003d00300020000100370000012000d9
:10231c000080fa00000006000400fa00000f7800ac
:10232c001107980060fa0700f00120000080fa0005
:10233c00000006000600fa0010079800210798001c
:10234c0022c0b30001c8b300a0c0b30002fd070057
:10235c00000f78001e0078000000e00002003d0035
:10236c001e00780033003700f2c1b300a1c0b300e7
:10237c0040c0b300f8fc0700000f78001e00780086
:10238c000000e00002003d001e007800290037002c
:10239c0072c9b30071c0b30030c0b300eefc0700cb
:1023ac00000f78001e0078000000e00002003d00e5
:1023bc001e0078001f0037000041eb008040eb004e
:1023cc0020c2b300e4fc0700000f78001e00780068
:1023dc000000e00002003d001e00780015003700f0
:1023ec000041eb008040eb0030c2b300dafc070088
:1023fc00000f78001e0078000000e00002003d0095
:10240c001e0078000b0037002e0190009e009000fb
:10241c000040eb00f5fc0700000f78001e00780070
:10242c000000e00002003d001e00780001003700b3
:10243c000000eb000080fa00000006000800fa0023
:10244c0020079800310798002e009000be009000e5
:10245c004808de00004f78002e009000be0090006f
:10246c004008de00104798001e4190009e40780006
:10247c0080c0b300b8fc0700100798001e00900045
:10248c000000e00002003d001e0090001400370028
:10249c002e009000be0090004809dd004800de00d0
:1024ac0000007100c808de00004f78002e0090007c
:1024bc00104798001e4190009e40780090c0b300d9
:1024cc00a5fc0700100798001e0090000000e0001b
:1024dc0002003d001e009000010037000000eb00e0
:1024ec000080fa00000006000600fa0020079800a1
:1024fc002e0090004800de00004f78002e00900067
:10250c00104798001e4190009e40780050c3b300c5
:10251c0091fc0700100798001e0090000000e000de
:10252c0002003d001e009000010037000000eb008f
:10253c000080fa00000006000000fa002e68ef0090
:10254c0010002000304088000000eb000080fa00f2
:10255c00000006000000fa002ec8bf000040e80092
:10256c002ee8b7002ec8bf002ee8b700a0ac2000a4
:10257c0001c8b30001487800b0ac200001c8b3001a
:10258c0001487800c0ac20008040eb000148780086
:10259c00d0ac200081c0b30001487800e18220005b
:1025ac0091407800e0ac2000014878005040800059
:1025bc0080407800f0ac200001487800404080005a
:1025cc008040780000ad2000014878003040800049
:1025dc008040780010ad200001487800e180200098
:1025ec009140780020ad200001487800f180200057
:1025fc009140780030ad2000014878008040800088
:10260c004800de008040780040ad20000148780092
:10261c00804080008040780050ad20000148780058
:10262c0060ad200011c8b3000148780070ad2000e7
:10263c0011c8b300014878000000eb000080fa00dc
:10264c00000006000000fa00c2ff0700e1002000b5
:10265c00a0ac2000aefa07000000eb000080fa00ee
:10266c00000006000000fa002828ef002a28ef00de
:10267c0000032800800888004002200060088800c1
:10268c0081e0a800a7c0a800a7a0a800a780a80068
:10269c0084e0a90094e0a8000080fa000000060085
:1026ac000000fa0040418000514180000080fa0097
:1026bc00000006000400fa00008fbe001e01be00e0
:1026cc0042418800534188000080fa000000060057
:1026dc000800fa002007980031079800424180005a
:1026ec00534180002e009000be009000001f41005e
:1026fc0001974900000000004041800051418000da
:10270c00be0f5000ae8f5800fbff39000080fa005e
:04271c0000000600b3
:020000040000fa
:10272000aa0a000020000000800000002c08000021
:1027300002000000800000002808000004000000e3
:10274000800000002a0a00008000000080000000d5
:102750002008000008000000800000003008000091
:1027600000010000800000000008000014000000cc
:1027700080000000ca0a00000e0000008000000077
:102780002e0800000200000080000000d80a0000af
:102790000a000000820000000000010000030000a9
:1027a00007000f000000000030090000fa000000e0
:1027b00080000000140800000c00000080000000f1
:0427c0000000000015
:020000040000fa
:1027c4000800fa002007980031079800a7ff0700c7
:1027d4001ffa070020fb070059ff0700e0fc070071
:1027e400e30047000e80e800d4fe0700000f7800e5
:1027f400f00320000100200012ff0700000f780002
:10280400800020003aff0700000f78008fff0700c8
:10281400010037000000000001022000a0aa2000ef
:10282400acfa070060418800604180000000e000cd
:10283400f8ff34006041800080007800a0aa2000e6
:082844004cfd0700f4ff370012
:020000040000fa
:10284c00f03fb1000180b10006003500ee03090035
:10285c0000000000403fb1000180b100fbff3d00d3
:10286c001000b000203fb0000200350000800900cd
:08287c0000000000000006004e
:020000040000fa
:020000040002f8
:04aff000ffff00005f
:020000040000fa
:020000040002f8
:04aff400ffff00005b
:020000040000fa
:020000040002f8
:04aff800befa00009d
:020000040000fa
:020000040002f8
:04affc003f3f0000d3
:00000001FF
